:100000000C942A000C943F000C943F000C943F0089
:100010000C943F000C943F000C943F000C943F0064
:100020000C943F000C943F000C943F000C943F0054
:100030000C943F000C943F000C943F000C943F0044
:100040000C943F000C943F000C943F000C943F0034
:100050000C943F0011241FBECFE5D8E0DEBFCDBF1A
:1000600011E0A0E6B0E0ECE8F9E002C005900D92E6
:10007000A237B107D9F70E94B0030C94C4040C94C2
:100080000000672B09F09FC0009711F4D8980895DD
:100090008130910511F4D99808958230910511F4B9
:1000A000DA9808958330910511F4DB98089584302F
:1000B000910511F4DC9808958530910511F4DD98CF
:1000C00008958630910511F4DE98089587309105E2
:1000D00011F4DF9808958A30910511F4C0980895BD
:1000E0008B30910511F4C19808958C30910511F46D
:1000F000C29808958D30910511F4C39808958E30FB
:10010000910511F4C49808958F30910511F4C598A4
:1001100008958031910511F4C698089581319105B3
:1001200011F4C79808958431910511F4A8980895A1
:100130008531910511F4A99808958631910511F43E
:10014000AA9808958731910511F4AB9808958831E4
:10015000910511F4AC9808958931910511F4AD9889
:1001600008958A31910511F4AE9808958B31910567
:1001700011F4AF9808958E31910511F49098089577
:100180008F31910511F4919808958032910511F401
:10019000929808958132910511F4939808958232CE
:1001A000910511F4949808958332910511F495986E
:1001B00008958432910511F496980895859709F071
:1001C0009FC097980895009711F4D89A08958130A8
:1001D000910511F4D99A08958230910511F4DA9AB3
:1001E00008958330910511F4DB9A089584309105C8
:1001F00011F4DC9A08958530910511F4DD9A089583
:100200008630910511F4DE9A08958730910511F436
:10021000DF9A08958A30910511F4C09A08958B30C1
:10022000910511F4C19A08958C30910511F4C29A88
:1002300008958D30910511F4C39A08958E3091057B
:1002400011F4C49A08958F30910511F4C59A089558
:100250008031910511F4C69A08958131910511F408
:10026000C79A08958431910511F4A89A08958531AB
:10027000910511F4A99A08958631910511F4AA9A6D
:1002800008958731910511F4AB9A0895883191054D
:1002900011F4AC9A08958931910511F4AD9A08953D
:1002A0008A31910511F4AE9A08958B31910511F4BC
:1002B000AF9A08958E31910511F4909A08958F3177
:1002C000910511F4919A08958032910511F4929A52
:1002D00008958132910511F4939A0895823291051F
:1002E00011F4949A08958332910511F4959A089522
:1002F0008432910511F4969A0895859709F4979A96
:100300000895CF93C82F80FF07C061E070E08EE1B1
:1003100090E00E94410006C060E070E08EE190E055
:100320000E944100C1FF07C061E070E08FE190E0F2
:100330000E94410006C060E070E08FE190E00E9402
:100340004100C2FF07C061E070E080E290E00E94DF
:10035000410006C060E070E080E290E00E94410051
:10036000C3FF07C061E070E081E290E00E944100BD
:1003700006C060E070E081E290E00E944100C4FFAE
:1003800007C061E070E082E290E00E94410006C098
:1003900060E070E082E290E00E944100C5FF07C08B
:1003A00061E070E083E290E00E94410006C060E0FE
:1003B00070E083E290E00E944100C6FF07C061E068
:1003C00070E084E290E00E94410006C060E070E0CE
:1003D00084E290E00E944100CC233CF461E070E0B4
:1003E00085E290E00E94410006C060E070E085E296
:1003F00090E00E944100CF910895CF93C82F60E014
:1004000070E08AE190E00E9441008C2F0E948101FF
:1004100061E070E08BE190E00E94410089EF90E0A4
:100420000197F1F700C0000060E070E08BE190E020
:100430000E94410089EF90E00197F1F700C00000B1
:10044000CF91089581E00E94FD01089560E070E081
:100450008AE190E00E94410060E070E08BE190E072
:100460000E94410087E893E10197F1F700C0000086
:1004700080E30E94FD0181EE94E00197F1F700C056
:10048000000080E30E94FD0189EF90E00197F1F701
:1004900000C0000080E30E94FD0183EC99E0019719
:1004A000F1F700C0000088E30E94FD018CE00E948B
:1004B000FD0181E00E94FD0186E00E94FD0108959A
:1004C000CF93C82F61E070E08AE190E00E94410084
:1004D0008C2F0E94810161E070E08BE190E00E942E
:1004E000410089EF90E00197F1F700C0000060E063
:1004F00070E08BE190E00E94410089EF90E001976D
:10050000F1F700C00000CF910895CF93DF93EC0185
:100510008881882331F021960E946002899181119F
:10052000FBCFDF91CF9108951816190684F420E0CF
:1005300030E04FE35DE063E0415050406040E1F760
:1005400000C000002F5F3F4F8217930791F7089577
:10055000DA982FE38DE093E0215080409040E1F75E
:1005600000C000000895DA9A87EA91E60197F1F752
:1005700000C000000895DB9883EC99E00197F1F743
:1005800000C000000895DB9A87EA91E60197F1F731
:1005900000C000000895DC9883EF91E00197F1F727
:1005A00000C000000895DC9A83EC99E00197F1F710
:1005B00000C000000895DD9883EC99E00197F1F701
:1005C00000C000000895DD9A2FE38DE093E02150F4
:1005D00080409040E1F700C000000895DE982FE7CA
:1005E00086E998E9215080409040E1F700C0000082
:1005F0000895DE9A87EA91E60197F1F700C00000BE
:10060000089588E290E021E02BBBE3EFF1E0319721
:10061000F1F700C000001BBAE3E9F1E13197F1F70F
:1006200000C00000019781F7089588E290E021E082
:100630002BBBE9EFF0E03197F1F700C000001BBAE7
:10064000EDE8F2E13197F1F700C00000019781F782
:100650000895DF982FE784E89EE121508040904084
:10066000E1F700C000000895DF9A2FE38DE093E0EA
:10067000215080409040E1F700C00000089588E2DA
:1006800090E022E02BBBE3EFF1E03197F1F700C0FF
:1006900000001BBAE3E9F1E13197F1F700C0000077
:1006A000019781F7089588E290E022E02BBBE9EF03
:1006B000F0E03197F1F700C000001BBAEDE8F2E17D
:1006C0003197F1F700C00000019781F7089580E8A5
:1006D00088BBB09925C0B19925C0B29925C0B399FE
:1006E00025C080E488BBB09923C0B19923C0B299DA
:1006F00023C0B39923C080E288BBB09921C0B199CF
:1007000021C0B29921C0B39921C080E188BBB099C2
:100710001FC0B1991FC0B2991FC0B3991FC00895DF
:1007200081E6089583E3089582E3089581E30895BF
:1007300082E6089586E3089585E3089584E30895A5
:1007400083E6089589E3089588E3089587E308958B
:1007500084E6089583E2089580E308958AE2089587
:1007600080EF87BB8FEF81BB84BB8ABB0E94B30243
:100770000E94D3020E94C3020E9426020E9422020B
:1007800080E80E94FD0180E690E00E94850281E9F8
:100790000E94FD018EE690E00E94850280EC0E949E
:1007A000FD018AE790E00E94850281ED0E94FD0133
:1007B0008CE890E00E9485028AE090E00E9494021A
:1007C0000E94220280E80E94FD018AE990E00E94D6
:1007D000850282E090E00E9494020E9467038133C8
:1007E000E1F70E94220280E80E94FD018BEA90E07E
:1007F0000E9485020E94A8028EE190E00E9494026D
:1008000080E80E94FD0189EB90E00E9485020E9431
:10081000B30285E090E00E94940280E90E94FD010D
:1008200086EC90E00E9485020E94BB028AE090E084
:100830000E94940280E90E94FD0187ED90E00E94F1
:1008400085020E94C30284E190E00E94940280EC41
:100850000E94FD0187EE90E00E9485020E94CB027B
:100860008AE090E00E94940280EC0E94FD0186EFF5
:1008700090E00E9485020E94D30284E190E00E94F1
:10088000940280E80E94FD0184E091E00E948502CC
:100890000E94DB028AE090E00E94940280E80E94BD
:1008A000FD0184E091E00E9485020E94E30285E060
:1008B00090E00E94940281ED0E94FD0185E191E0AB
:1008C0000E9485020E94EE0284E190E00E94940260
:1008D00081ED0E94FD0180E291E00E9485020E946C
:1008E000F90284E190E00E94940280E90E94FD01F7
:1008F0008BE291E00E9485020E94010385E090E076
:100900000E94940280E90E94FD0186E391E00E942A
:1009100085020E94150385E090E00E94940280EC1D
:100920000E94FD0183E491E00E9485020E94290358
:1009300084E190E00E94940280EC0E94FD018EE42C
:1009400091E00E9485020E94340384E190E00E94BD
:10095000940281ED0E94FD0189E591E00E948502EB
:100960000E943F0385E090E00E94940281ED0E9486
:10097000FD0184E691E00E9485020E94530385E018
:0C09800090E00E9494021CCFF894FFCF7E
:10098C002057656C636F6D652E2E2E2E2000202D4A
:10099C004C6576656C20312D20004861726477615E
:1009AC0072652050726F6A65637420002047726F05
:1009BC007570204E6F2E3039200050726573732085
:1009CC003120746F2073746172740053746172748B
:1009DC0020626C656E6465720053746F7020626C7B
:1009EC00656E64657200537461727420776174650E
:1009FC00722070756D700053746F70207761746520
:100A0C00722070756D70005374617274206F696C14
:100A1C002070756D700053746F70206F696C20704E
:100A2C00756D70006D69787475726520746F2068CF
:100A3C002E703A3100682E702D312068656174007B
:100A4C00682E702D3120636F6F6C00536572766F5A
:100A5C003A3120557000536572766F3A3120446FED
:100A6C00776E00682E702D32206865617400682ED8
:100A7C00702D3220636F6F6C00536572766F3A3253
:100A8C0020757000536572766F3A3220446F776E22
:020A9C00000058
:00000001FF
